:100000000C9434000C9451000C9451000C94510049
:100010000C9451000C9451000C9451000C9451001C
:100020000C9451000C9451000C9451000C9451000C
:100030000C9451000C9451000C945A000C945100F3
:100040000C9451000C9451000C9451000C945100EC
:100050000C9451000C9451000C9451000C945100DC
:100060000C9451000C94510011241FBECFEFD8E026
:10007000DEBFCDBF11E0A0E0B1E0E4E1F3E002C0FB
:1000800005900D92AA30B107D9F721E0AAE0B1E0BE
:1000900001C01D92A031B207E1F70E947D000C94CF
:1000A00088010C9400009091C00095FFFCCF8093D4
:1000B000C60008951F921FB61F9211248F939F931D
:1000C000AF93BF9380910C0190910D01A0910E010F
:1000D000B0910F010196A11DB11D80930C01909369
:1000E0000D01A0930E01B0930F01BF91AF919F91AD
:1000F0008F911F901FBE1F90189500D000D000D088
:100100000F92CDB7DEB7239A219A389883E880936F
:10011000B00084E08093B1008FEF8093B30087E656
:1001200090E09093C5008093C40088E08093C10064
:1001300086E08093C20087E880937A0082E084BDE5
:1001400099EF97BD80936E0083E085BD789404E0BD
:1001500011E0F80181918F018111A0C08DE00E9412
:1001600053008AE00E94530010920B0110920A0182
:1001700004E610E088248A948FEDE82E88E0F82EBB
:1001800090E4992E2AE0722E3AE0C32ED12C809171
:100190000A0190910B0197FD84C0843091050CF009
:1001A00082C0E82FF0E0E050FF4F80819801281BCB
:1001B0003109829EC001839E900D1124B8010E94D6
:1001C00074016093B300F0928900E09288009092ED
:1001D00080007092810090927C0080917A0080640F
:1001E00080937A0080917A00F82FF0746F2E86FD4C
:1001F000F9CFA0907800B0907900B7FE06C08DE2EC
:100200000E945300B194A194B10881E090E08C0F5A
:100210009D1F860D911DFC016394C501B6010E94CE
:100220006001805D8083C5015B010A9770F76110F2
:100230003CC08DE00E9453008AE00E9453008FB7BB
:10024000F89440910C0150910D0160910E01709154
:100250000F018FBF48535F4F6F4F7F4F2FB7F894F9
:1002600080910C0190910D01A0910E01B0910F01B0
:100270002FBF841B950BA60BB70BB7FDEFCF1092CA
:10028000800010928100299880910A0190910B01C1
:10029000019690930B0180930A0179CF0E9453003D
:1002A00058CF80E07ECF83E07CCF6A94E1E0F0E03D
:1002B000EC0FFD1FE60DF11D80810E945300B7CFAA
:1002C000AA1BBB1B51E107C0AA1FBB1FA617B7077C
:1002D00010F0A61BB70B881F991F5A95A9F7809598
:1002E0009095BC01CD01089597FB072E16F400945C
:1002F00007D077FD09D00E94600107FC05D03EF4CD
:10030000909581959F4F0895709561957F4F0895C1
:04031000F894FFCF8F
:0A0314003F065B4F726561647900DB
:00000001FF
